:020000040800F2
:100000001004002051130008291300082B130008C6
:100010002D1300082F130008311300080000000002
:100020000000000000000000000000003313000882
:1000300035130008000000003713000839130008CA
:100040008113000885130008891300088D13000828
:100050009113000895130008991300089D130008D8
:10006000A1130008A5130008A9130008AD13000888
:10007000B1130008B5130008B9130008BD13000838
:10008000C1130008C5130008C9130008CD130008E8
:10009000D1130008D5130008D9130008DD13000898
:1000A000E1130008E5130008E9130008ED13000848
:1000B000F1130008F513000800000000F913000810
:1000C000FD130008011400080514000809140008B5
:1000D0000D14000811140008151400081914000864
:1000E0001D1400082114000800000000000000009A
:1000F0000000000000000000000000000000000000
:100100000000000025140008000000002914000869
:100110002D14000800000000311400080000000049
:1001200035140008391400083D1400084114000873
:1001300045140008491400084D1400080000000090
:100140005114000855140008591400085D140008E3
:100150006114000865140008691400086D14000893
:1001600071140008751400087914000800000000DC
:10017000000000007D1400080000000000000000E6
:100180008114000885140008891400088D140008E3
:10019000911400082DE9FE4F0500002D01D101202A
:1001A0003AE3DFF8CC98D9F8004014F00C04DFF8FB
:1001B000CC88D8F8007017F003072878C00640F103
:1001C000C680002C03D00C2C7AD1012F78D1DFF817
:1001D0009CA8DAF80000800704D5A869002801D19E
:1001E000012019E3DAF80000000704D5DAF800006E
:1001F00010F0F00005E0DFF814090068000910F0C5
:10020000F000296A88421ED2286A00F039FC0028D2
:1002100001D0012000E3DAF8000050F00800CAF82D
:100220000000DAF8001031F0F001286A0143CAF842
:100230000010DFF8DC08016831F47F41EA6951EA17
:10024000022101601FE0DAF8000050F00800CAF84F
:100250000000DAF8001031F0F001286A0143CAF812
:100260000010DFF8AC08016831F47F41EA6951EA17
:1002700002210160002C06D1286A00F001FC002850
:1002800001D00120C8E200F086FBDFF88818D9F819
:100290000020C2F30312895C11F01F01C840DFF88F
:1002A000D4170860DFF8D007006800F049FC8DF82B
:1002B00000009DF80000002849D09DF80000ABE246
:1002C000A86900282DD0DFF8A497D9F8000050F0D5
:1002D0000100C9F8000000F063FC0600D9F8000036
:1002E000800706D400F05CFC801B0328F6D30320B3
:1002F00092E2D9F8000050F00800C9F80000D9F8DF
:10030000001031F0F001286A0143C9F80010DFF84D
:100310000008016831F47F41EA6951EA0221016075
:1003200015E0DFF84897D9F8000040084000C9F808
:10033000000000F035FC0600D9F80000800706D563
:1003400000F02EFC801B0328F6D3032064E22878FB
:10035000C00754D5082C03D00C2C0BD1032F09D186
:10036000DFF808070068800349D56868002846D18F
:10037000012051E26868B0F5803F06D1DFF8EC0655
:10038000016851F48031016018E06868B0F5A02F71
:100390000AD1DFF8D806016851F4802101600168B4
:1003A00051F48031016009E0DFF8C006016831F4E2
:1003B00080310160016831F48021016068680028A3
:1003C0000ED000F0EDFB0600DFF8A0060068800309
:1003D00015D400F0E5FB801B6528F5D303201BE254
:1003E00000F0DEFB0600DFF884060068800306D517
:1003F00000F0D6FB801B6528F5D303200CE228789B
:10040000800752D5042C03D00C2C15D1022F13D108
:10041000DFF858060068400504D5E868002801D1D7
:100420000120F9E1DFF8E806016831F0FE412A69B0
:1004300051EA0261016038E0E86800281FD0DFF867
:100440002C96D9F8000050F48070C9F8000000F034
:10045000A7FB0600D9F80000400506D400F0A0FB79
:10046000801B0328F6D30320D6E1DFF8A406016839
:1004700031F0FE412A6951EA0261016015E0DFF8BE
:10048000EC95D9F8000030F48070C9F8000000F055
:1004900087FB0600D9F80000400506D500F080FB78
:1004A000801B0328F6D30320B6E1287800072ED559
:1004B0006869002815D0DFF85496D9F8000050F08C
:1004C0000100C9F8000000F06BFB0600D9F800003D
:1004D00080071CD400F064FB801B0328F6D30320A4
:1004E0009AE1DFF82896D9F8000040084000C9F8E2
:1004F000000000F055FB0600D9F80000800706D583
:1005000000F04EFB801B0328F6D3032084E12878FB
:10051000400740F181805FF00009DFF8FCA5DAF8C0
:100520000000C0000DD4DAF8000050F08050CAF886
:100530000000DAF8000010F08050019001980120CE
:100540008146DFF8D8B5DBF80000C00513D4DBF82E
:10055000000050F48070CBF8000000F021FB060092
:10056000DBF80000C00506D400F01AFB801B03284E
:10057000F6D3032050E1A868012806D1DFF8A005D2
:10058000016851F00101016017E0A86805280AD14F
:10059000DFF88C05016851F004010160016851F039
:1005A0000101016009E0DFF87805016849084900A8
:1005B0000160016831F004010160A868002810D0D2
:1005C00000F0EEFA0600DFF858050068800719D43D
:1005D00000F0E6FA801B41F289318842F3D3032010
:1005E0001AE100F0DDFA0600DFF834050068800744
:1005F00008D500F0D5FA801B41F289318842F3D347
:10060000032009E14846C0B2012805D1DAF800000C
:1006100030F08050CAF80000287880062ED5686A2D
:10062000002815D0DFF8FC94D9F8000050F0010044
:10063000C9F8000000F0B4FA0600D9F800008007FD
:100640001CD400F0ADFA801B0328F6D30320E3E0AE
:10065000DFF8D094D9F8000040084000C9F8000045
:1006600000F09EFA0600D9F80000800706D500F0D9
:1006700097FA801B0328F6D30320CDE0A86A002850
:1006800000F0C980A86A022840F0A380D8F80000D2
:10069000070017F00300E96A884222D117F07000C2
:1006A000296B491EB0EB011F1BD117F4FE40696B8B
:1006B000B0EB012F15D117F07840A96BB0EBC16FEB
:1006C0000FD117F4C000E96B4908491EB0EB415F38
:1006D00007D117F0C060296C4908491EB0EB416F83
:1006E00057D00C2C53D0DFF884A3DAF80000400177
:1006F00001D5012090E0DAF8000030F08070CAF8EF
:10070000000000F04DFA8146DAF80000800107D5BC
:1007100000F046FAB0EB09000328F5D303207BE094
:10072000D8F80010DFF800040140E86A0143286BA4
:10073000401E51EA0011686B51EA0021E86B400845
:10074000401E51EA4051286C4008401E51EA406169
:10075000A86B51EAC061C8F80010DAF8000050F048
:100760008070CAF80000D8F8000050F08070C8F817
:10077000000000F015FA0600DAF8000080014AD403
:1007800000F00EFA801B0328F6D3032044E001207A
:1007900042E0DFF8D892D9F8000080013BD4D9F8C4
:1007A000000050F08070C9F80000D8F8000050F048
:1007B0008070C8F8000000F0F3F90600D9F80000D6
:1007C000800128D400F0ECF9801B0328F6D3032025
:1007D00022E00C2C1DD0DFF89492D9F8000030F004
:1007E0008070C9F8000000F0DBF90600D9F80000BD
:1007F000800106D500F0D4F9801B0328F6D303202E
:100800000AE0D8F80010DFF824030140C8F800100F
:1008100001E0012000E00020BDE8FE8F2DE9F0415D
:1008200004000D00002C01D10120B2E0DFF80073BC
:10083000386810F00700A8420BD23868C008C00022
:1008400028433860386810F00700A84201D0012022
:100850009FE0207880070DD5DFF81412086810F0AB
:10086000F000A268904205D20A6832F0F002A06857
:1008700002430A602078C00742D56068032806D189
:10088000DFF8E801006880011CD4012081E0606885
:10089000022806D1DFF8D4010068800312D40120B9
:1008A00077E06068002806D1DFF8C00100688007A3
:1008B00008D401206DE0DFF8B4010068400501D4E0
:1008C000012066E0DFF8A881D8F8001089088900C7
:1008D00060680143C8F8001000F062F90600D8F81B
:1008E000000010F00C006168B0EB810F08D000F040
:1008F00057F9801B41F289318842F0D3032048E048
:10090000207880070CD55A49A0680A6812F0F002D6
:10091000904205D20A6832F0F002A06802430A60F1
:10092000386810F0070085420BD23868C008C00054
:1009300028433860386810F00700A84201D0012031
:1009400027E02078400706D549490A6832F4E0627A
:10095000E06802430A602078000707D54448016830
:1009600031F46051226951EAC201016000F013F8CC
:10097000DFF8A0113E4A1268C2F30312895C11F03D
:100980001F01C8403B4908603B48006800F0D8F8A8
:10099000C0B2BDE8F0812DE9F041002600203449C5
:1009A000096811F00C01DFF8D4C0DCF8007017F012
:1009B0000307002903D00C291AD1012F18D1DFF821
:1009C000ACE0DEF800805FEA087806D4DFF83CE1AE
:1009D000DEF800E0CEF3032E03E0DEF800E0CEF315
:1009E000031E544E56F82E6000290CD130000AE048
:1009F000042903D1DFF840E1704604E0082902D160
:100A0000DFF838E170460C292DD1DCF800E01EF04B
:100A1000030E73469E46BEF1020F03D0BEF1030FD4
:100A200003D005E0DFF810E103E0DFF810E100E0BB
:100A3000B646DCF80020C2F30212521C1500DCF8A6
:100A40000020C2F3062202FB0EFEBEFBF5F2DCF82C
:100A500000C0CCF3416C1CF1010C5FEA4C0C644605
:100A6000B2FBF4FC6046BDE8F081000000100240DB
:100A70000810024004000020000000200C1002407A
:100A80007CB504000025244E3068C00003D500F07A
:100A90008DF801000FE0306850F080503060306811
:100AA00010F080500090009800F080F8010030684D
:100AB00030F080503060B1F5007F09D1812C15D322
:100AC000A12C02D30220050010E0012005000DE05A
:100AD000812C02D30320050008E0802C02D10220E3
:100AE000050003E0702C01D10120050010480268C8
:100AF000D208D2002A430260006810F00700A84222
:100B000001D0012000E0002076BD000094100240DA
:100B100004100240401300085810024000700040CA
:100B200090100240981002408C809D01FCFFEEFE68
:100B3000002002401C1200080024F40000127A0079
:100B400038B5040000251349087800281DD04FF45B
:100B50007A700978B0FBF1F00F490968B1FBF0F049
:100B600000F0EFF800280DD1102C08D2002221004F
:100B70005FF0FF3000F0D0F80848046007E0012083
:100B8000050004E00120050001E001200500280027
:100B9000C0B232BD0C000020040000200000002084
:100BA00001480068704700BF08000020DFF880009F
:100BB000006810F4C060704710B40200B2F5007F06
:100BC00025D1DFF86C00036813F4C063B3F5007F30
:100BD0002AD00123046863F34A240460DFF8540038
:100BE000036832204343DFF85000B3FBF0F0401CB1
:100BF0000100DFF8480003685B0503D5002901D038
:100C0000491EF6E7006840050ED503200DE0DFF829
:100C10002000036813F4C063B3F5806F04D002238F
:100C2000046863F34A240460002010BC704700008D
:100C3000007000400400002040420F00147000408B
:100C400010B410F00703DFF8084122684FF6FF01E7
:100C50000A4052EA0322DFF8FC100A43226010BC6B
:100C60007047DFF8EC000068C0F302207047000016
:100C700010B4020052B2002A05D40A01364B040017
:100C800064B21A5508E00A01344B040064B214F04F
:100C90000F04234403F8042C10BC704770B4030005
:100CA00013F00704D4F10700052801D3042001E064
:100CB000D4F10700251D072D01D2002500E0E51E17
:100CC000012616FA00F0401E0140A94016FA05F56B
:100CD0006D1E2A401143080070BC704710B5040017
:100CE000601EB0F1807F01D301200EE0601E1C4920
:100CF00008600F215FF0FF30FFF7BAFF00201949AD
:100D00000860072018490860002010BD10B50400D5
:100D10002000FFF795FF10BD2DE9F04104000D0004
:100D200016000027FFF79DFF80463200290040464D
:100D3000FFF7B4FF0100200040B2FFF799FFBDE8C4
:100D4000F08110B504002000FFF7C8FF10BD0000BF
:100D50000CED00E00000FA0500E400E018ED00E012
:100D600014E000E018E000E010E000E0F8B4030058
:100D700000250868E840002800F0C68001260F68BA
:100D800016FA05F007403A00002A00F0BB80087907
:100D900010F00300012804D0087910F003000228A5
:100DA00019D19F685FF0030C68001CFA00FC37EA59
:100DB0000C07D1F80CC068001CFA00FC5CEA0707BD
:100DC0009F605868AE40B0434E68C6F30016AE4010
:100DD000304304005C60087910F0030003280AD057
:100DE000DE68032768008740BE438F68680087403D
:100DF0003E433400DC60087910F00300022816D16D
:100E00002800C00803EB8000006A0F26AF0017F02F
:100E10001C07BE40B0430E69AF0017F01C07BE4070
:100E2000304304002800C00803EB800004621E6801
:100E3000032768008740BE430F7917F00307680057
:100E400087403E4334001C60486810F4403F59D04E
:100E50003448066856F001060660006810F001008C
:100E600000900098304E2800800856F820000F2788
:100E70005FEA850C1CF00C0C17FA0CF7B843B3F1C1
:100E8000904F01D1002414E0284CA34201D1012449
:100E90000FE0274CA34201D102240AE0254CA342D3
:100EA00001D1032405E0244CA34201D1042400E035
:100EB0000724AF0017F00C07BC4020432C00A40807
:100EC00046F824001D4E346894434F68FF0200D555
:100ED000144334601A4E306890434F68BF0200D507
:100EE00010433060174C266896434F68BF0300D507
:100EF000164326601448046894434F68FF0300D5E6
:100F0000144304606D1C34E7F1BC70471300DBB27E
:100F1000002B03D00B009BB2836102E00B009BB25D
:100F200083627047601002400800014000040048DE
:100F300000080048000C0048001000480804014068
:100F40000C040140040401400004014038B56C4821
:100F5000006880F308886B4804682500A84731BD05
:100F600080B500F0DBF800F010F800F047F801223F
:100F700008216548FFF7CAFF012201215FF0904078
:100F8000FFF7C4FFFFF7E2FFF1E780B596B0442218
:100F9000002105A800F0D4F814220021684600F0D2
:100FA000CFF84FF40070FFF707FE002801D000F0E3
:100FB000B3F81020059001200B9000200C906020C9
:100FC0000D9000200F9005A8FFF7E4F8002801D04D
:100FD00000F0A2F80F200090002001900020029065
:100FE000002003900020049000216846FFF716FCC3
:100FF000002801D000F090F817B000BD38B586B0D9
:1010000014220021684600F09BF84048016851F026
:1010100001010160016811F0010105910599016864
:1010200051F004010160016811F004010591059976
:10103000016851F080010160016811F080010591A3
:101040000599016851F002010160006810F002008A
:10105000059005982C4C002208212000FFF756FF30
:101060002B4D00224FF480612800FFF74FFF002234
:1010700001215FF09040FFF749FF4FF4C0600090FE
:10108000122001900120029003200390042004907C
:1010900069465FF09040FFF769FE0820009001204C
:1010A0000190002002900020039069462000FFF785
:1010B0005DFE022000900020019000200290694611
:1010C0001448FFF753FE4FF4806000900120019018
:1010D000002002900020039069462800FFF746FE9A
:1010E0000120009001200190002002900020039038
:1010F00069465FF09040FFF739FE07B030BD000051
:101100000000FF1F0400FF1F000800484C100240B1
:1011100000040048001C004872B6FEE710B5002429
:101120000320FFF7F3FD0F20FFF70AFD002802D090
:101130000120040001E000F00DF82000C0B210BD55
:1011400010B5044610460A460146204600F01EF837
:10115000204610BD81B00B48016851F001010160CB
:10116000006810F00100009000980748016851F0F5
:1011700080510160006810F080500090009801B02C
:10118000704700BF601002405810024062F30F2207
:1011900062F31F42401810F0030308D0C91A1FD38E
:1011A000DB0748BF00F8012D28BF20F8022D1300EF
:1011B00030B414461546103928BF20E93C00FAD84F
:1011C000490728BF20E90C0048BF40F8042D8900DA
:1011D00028BF20F8022D48BF00F8012D30BC704711
:1011E000C91818BF00F8012DCB0728BF00F8012D42
:1011F00070470EE002684368024408305FEAC37C2F
:1012000044BF4B445B1E52F804CB43F804CB091F88
:10121000F9D150F8041B0029ECD17047A0860100D9
:10122000400D0300801A060000350C0040420F00FC
:1012300080841E0000093D0000127A000024F400A2
:1012400000366E010048E801006CDC0210B5074969
:1012500079441831064C7C44163404E00A68081DB1
:10126000114488470146A142F8D110BD2C0000006E
:101270003C0000004EF68851CEF20001086840F4B0
:1012800070000860BFF34F8FBFF36F8F4FF0017096
:10129000E1EE100A704700005BFFFFFF1000000046
:1012A000D0000000000000200000000000F00DF859
:1012B000002801D0FFF7CAFFAFF300800020AFF392
:1012C0000080FFF74DFE00F002F80120704700F0AB
:1012D00001B800000746384600F002F8FBE70000BE
:1012E00080B5AFF30080024A11001820ABBEFBE7C7
:1012F000260002000548014603B4684680F30988C9
:10130000AFF30080FFF7B6FFFFF7D0FFA5EDF5FEC6
:1013100003480168034A127889180160704700BFCA
:10132000080000200C000020FEE7FEE7FEE7FEE7D5
:10133000FEE770477047704780B5FFF7E9FF01BDD2
:101340000000000000000000010203040607080975
:10135000014880470148004761130008F512000862
:101360000248016851F470010160704788ED00E0A7
:101370001000000000093D00000000000100000016
:10138000FFF7FEBFFFF7FEBFFFF7FEBFFFF7FEBF91
:10139000FFF7FEBFFFF7FEBFFFF7FEBFFFF7FEBF81
:1013A000FFF7FEBFFFF7FEBFFFF7FEBFFFF7FEBF71
:1013B000FFF7FEBFFFF7FEBFFFF7FEBFFFF7FEBF61
:1013C000FFF7FEBFFFF7FEBFFFF7FEBFFFF7FEBF51
:1013D000FFF7FEBFFFF7FEBFFFF7FEBFFFF7FEBF41
:1013E000FFF7FEBFFFF7FEBFFFF7FEBFFFF7FEBF31
:1013F000FFF7FEBFFFF7FEBFFFF7FEBFFFF7FEBF21
:10140000FFF7FEBFFFF7FEBFFFF7FEBFFFF7FEBF10
:10141000FFF7FEBFFFF7FEBFFFF7FEBFFFF7FEBF00
:10142000FFF7FEBFFFF7FEBFFFF7FEBFFFF7FEBFF0
:10143000FFF7FEBFFFF7FEBFFFF7FEBFFFF7FEBFE0
:10144000FFF7FEBFFFF7FEBFFFF7FEBFFFF7FEBFD0
:10145000FFF7FEBFFFF7FEBFFFF7FEBFFFF7FEBFC0
:10146000FFF7FEBFFFF7FEBFFFF7FEBFFFF7FEBFB0
:10147000FFF7FEBFFFF7FEBFFFF7FEBFFFF7FEBFA0
:10148000FFF7FEBFFFF7FEBFFFF7FEBFFFF7FEBF90
:04149000FFF7FEBFA5
:04000005080012F5E8
:00000001FF
